:020000040800F2
:10000000780600208901000891010008930100088A
:100010009501000897010008990100080000000000
:100020000000000000000000000000009B0100082C
:100030009D010008000000009F0100085908000809
:10004000A3010008A3010008A3010008A301000800
:10005000A3010008A3010008A3010008A3010008F0
:10006000A3010008A3010008A3010008A3010008E0
:10007000A3010008A3010008A3010008A3010008D0
:10008000A3010008A3010008A3010008A3010008C0
:10009000A3010008A3010008A3010008A3010008B0
:1000A000A3010008A3010008A3010008A3010008A0
:1000B000A3010008A3010008A3010008A301000890
:1000C000A3010008A3010008A3010008A301000880
:1000D000A3010008A3010008A3010008A301000870
:1000E000A3010008A3010008A301000800F002F822
:1000F00000F03AF80AA090E8000C82448344AAF188
:100100000107DA4501D100F02FF8AFF2090EBAE885
:100110000F0013F0010F18BFFB1A43F0010318473B
:10012000DC090000FC090000103A24BF78C878C13F
:10013000FAD8520724BF30C830C144BF04680C60ED
:10014000704700000023002400250026103A28BF35
:1001500078C1FBD8520728BF30C148BF0B60704739
:100160001FB51FBD10B510BD00F031F81146FFF7E7
:10017000F7FF00F05BFC00F04FF803B4FFF7F2FF6D
:1001800003BC00F057F800000948804709480047C1
:10019000FEE7FEE7FEE7FEE7FEE7FEE7FEE7FEE737
:1001A000FEE7FEE704480549054A064B7047000094
:1001B00015090008ED0000087800002078060020EE
:1001C000780200207802002070477047704775461B
:1001D00000F02CF8AE4605006946534620F00700B3
:1001E000854618B020B5FFF7DDFFBDE820404FF091
:1001F00000064FF000074FF000084FF0000B21F011
:100200000701AC46ACE8C009ACE8C009ACE8C009DD
:10021000ACE8C0098D46704710B50446AFF30080C6
:100220002046BDE81040FFF7A8BF00000048704717
:100230001800002001491820ABBEFEE7260002008E
:100240007047000010B50021837A012202FA03F101
:100250003D4A126842F001023B4B1A603A4A1C3296
:1002600012688A43384B1C331A60027BCAB9364A7B
:100270000C3212688A43344B0C331A604288C388AC
:1002800042EA0343304A4032847A42F834300288EA
:10029000838842EA03432C4A4032847A02EBC40248
:1002A0005360027B012A19D1274A0C3212680A4393
:1002B000254B0C331A604288038842EA0343224AE2
:1002C0004032847A42F83430C288838842EA034359
:1002D0001D4A4032847A02EBC4025360C27A3AB9B2
:1002E000194A121D12688A43174B1B1D1A6006E03B
:1002F000154A121D12680A43134B1B1D1A6002890E
:1003000032B9114A143212688A430F4B14331A60FF
:100310000289012A06D10C4A143212680A430A4B98
:1003200014331A60427B012A06D1074A1C32126834
:100330000A43054B1C331A60034A126822F001027B
:10034000014B1A6010BD00000066004030B5024647
:1003500000200023146824F002041460146844F0A0
:100360000104146000E05B1C546804F001041CB933
:100370004FF6FF74A342F6D1546804F001040CB99F
:1003800000206CE08C79012C04D1146844F08004C6
:10039000146003E0146824F080041460CC79012C0C
:1003A00004D1146844F04004146003E0146824F09D
:1003B000400414600C7A012C04D1146844F0200429
:1003C000146003E0146824F0200414604C7A012CBB
:1003D00004D1146844F01004146003E0146824F09D
:1003E000100414608C7A012C04D1146844F00804C1
:1003F000146003E0146824F008041460CC7A012C23
:1004000004D1146844F00404146003E0146824F078
:10041000040414608C78A407CD7844EA05640D794F
:1004200044EA05444D7944EA05540D886D1E2C4379
:10043000D461146824F001041460002300E05B1C04
:10044000546804F001041CB14FF6FF74A342F6D1C6
:10045000546804F001040CB1002000E0012030BD1C
:1004600010B502460020936803F08063B3F1806FFB
:1004700000D110E0936803F00063B3F1006F01D185
:10048000012008E0936803F08053B3F1805F01D14D
:10049000022000E00420042874D002F5C07303EBAE
:1004A00000131B6803F0010402F5C07303EB001393
:1004B0001C600B7A7BB94B7A0C8843EA445302F5F3
:1004C000C07404EB00142468234302F5C07404EBE9
:1004D0000014236010E00B7A4C6843EAC4034C7AA2
:1004E000234302F5C07404EB00142468234302F58F
:1004F000C07404EB001423608B7A03F00F038B723B
:1005000002F5C07303EB00135B6823F00F0402F5E0
:10051000C07303EB00135C6002F5C07303EB0013C0
:100520005B688C7A234302F5C07404EB00146360AB
:100530008B7B1C064B7B44EA03440B7B44EA03237E
:10054000CC7A234302F5C07404EB0014A3608B7CC7
:100550001C064B7C44EA03440B7C44EA0323CC7B1B
:10056000234302F5C07404EB0014E36002F5C0738A
:1005700003EB00131B6843F0010402F5C07303EBA7
:1005800000131C6010BD000070B500F071F9134835
:100590000068134AB0FBF2F1481EB0F1807F00D32F
:1005A0001BE0481E4FF0E022506150170F22002838
:1005B00004DB13071C0E0B4B1C5406E013071D0E27
:1005C000094B00F00F04241F1D5500BF00204FF001
:1005D000E02290610720106100BF70BD0400002080
:1005E00040420F0000E400E018ED00E000B50246D4
:1005F00003E04FF47A7000F005F8101EA2F101023A
:10060000F7D100BD0349086000BF0249096800290D
:10061000FBD17047000000202DE9F0410246002583
:100620000026002000230024002791F803C00CF0CE
:100630000F0591F803C00CF0100CBCF1000F03D0B3
:1006400091F802C04CEA050591F800C0BCF1000F1A
:1006500031D0146800202BE04FF0010C0CFA00F3AD
:10066000B1F800C00CEA03069E4220D183004FF08F
:100670000F0C0CFA03F7BC4305FA03FC4CEA040424
:1006800091F803C0BCF1280F06D14FF0010C0CFA11
:1006900000FCC2F814C00AE091F803C0BCF1480F96
:1006A00005D14FF0010C0CFA00FCC2F810C0401C40
:1006B0000828D1D31460B1F800C0BCF1FF0F34DDBD
:1006C000546800202EE000F1080C4FF0010808FAF1
:1006D0000CF3B1F800C00CEA03069E4221D183005E
:1006E0004FF00F0C0CFA03F7BC4305FA03FC4CEA7D
:1006F000040491F803C0BCF1280F05D100F1080CE7
:1007000008FA0CF8C2F8148091F803C0BCF1480F45
:1007100007D100F1080C4FF0010808FA0CF8C2F8F4
:100720001080401C0828CED35460BDE8F081000042
:1007300029B1064AD2690243044BDA6104E0034A54
:10074000D2698243014BDA61704700000010024019
:1007500029B1064A92690243044B9A6104E0034AB4
:1007600092698243014B9A61704700000010024079
:1007700010B500F001F810BD0CB5002001900090FC
:100780003348006840F480303149086000BF304889
:10079000006800F4003000900198401C019000981F
:1007A00018B90198B0F5A06FF1D12948006800F49C
:1007B000003010B10120009001E00020009000986E
:1007C000012843D12348006840F010002149086007
:1007D0000846006820F0030008600846006840F002
:1007E000020008601A484068194948600846406895
:1007F00048600846406840F48060486008464068A9
:1008000020F47C1048600846406840F4E8104860D6
:100810000846006840F08070086000BF0C4800681F
:1008200000F000700028F9D00948406820F003006B
:10083000074948600846406840F00200486000BF31
:100840000348406800F00C000828F9D10CBD0000F6
:1008500000100240002002400448006820B1034814
:100860000068401E01490860704700000000002039
:1008700010B5002100200022214B5B6803F00C0121
:1008800021B1042906D0082928D107E01D4B1E4CB0
:10089000236027E01B4B1C4C236023E0184B5B6854
:1008A00003F47010164B5B6803F48032022303EBF1
:1008B000904022B9154B4343134C23600DE0104B7D
:1008C0005B6803F4003323B1104B43430E4C2360A9
:1008D00003E00C4B43430C4C236003E0094B0A4CF0
:1008E000236000BF00BF064B5B68C3F30313084CD3
:1008F000E15C054B1B68CB40034C236010BD00003E
:100900000010024000127A000400002000093D009F
:100910000800002010B51348006840F0010011499C
:10092000086008464068104908400E49486008467B
:1009300000680E4908400B4908600846006820F42A
:10094000802008600846406820F4FE0048604FF4AC
:100950001F008860FFF70CFF4FF00060044908603B
:1009600010BD0000001002400000FFF8FFFFF6FE7F
:1009700008ED00E000B589B001210420FFF7E8FE92
:1009800001214806FFF7D4FE4FF40060ADF82000C7
:1009900048208DF8230003208DF822004FF480506A
:1009A000ADF8200018208DF8230008A91D48FFF796
:1009B00033FE00208DF81A008DF81B008DF81C0006
:1009C0008DF81D008DF81E008DF81F008DF81600A3
:1009D0008DF8170002208DF8180004208DF81900FA
:1009E000ADF8140005A91048FFF7B0FC00208DF801
:1009F0000E008DF80F0001208DF810000020ADF8DA
:100A00000400ADF80600ADF80800ADF80A00ADF836
:100A10000C0001208DF8110001A8FFF713FC09B0AC
:100A200000BD000000080140006400401FB5FFF752
:100A3000ABFDFFF79FFF19A103C9CDE9020119A181
:100A400003C9CDE9000127E040F6B830FFF7CEFD3D
:100A5000072216A140F2231000F030F840F6B8301B
:100A6000FFF7C4FD072213A140F2564000F026F81C
:100A700040F6B830FFF7BAFD072202A940F2231072
:100A800000F01CF840F6B830FFF7B0FD07226946C9
:100A900040F2564000F012F8D6E7000068656C6C32
:100AA0006F20200078696E6368616F00696420318F
:100AB00032332000696420343536200070B586B0AA
:100AC00005460E4614460195002002908DF80D0053
:100AD0008DF80C008DF80E4000BF04E0325C0DF183
:100AE0000F010A54401CA042F8DB01A90248FFF79D
:100AF000B7FC06B070BD0000006400401C0B00088D
:100B0000000000201800000028010008340B000835
:100B100018000020600600004401000800000000EA
:100B200000A24A04000000000000000001020304CB
:040B300006070809A3
:04000005080000ED02
:00000001FF
