:020000040800F2
:100000009006002089010008910100089301000872
:100010009501000897010008990100080000000000
:100020000000000000000000000000009B0100082C
:100030009D010008000000009F010008450700081E
:10004000A3010008A3010008A3010008A301000800
:10005000A3010008A3010008A3010008A3010008F0
:10006000A3010008A3010008A3010008A3010008E0
:10007000A3010008A3010008A3010008A3010008D0
:10008000A3010008A3010008A3010008A3010008C0
:10009000A3010008A3010008A3010008A3010008B0
:1000A000A3010008A3010008A3010008A3010008A0
:1000B000A3010008A3010008A3010008A301000890
:1000C000A3010008A3010008A3010008A301000880
:1000D000A3010008A3010008A3010008A301000870
:1000E000A3010008A3010008A301000800F002F822
:1000F00000F03AF80AA090E8000C82448344AAF188
:100100000107DA4501D100F02FF8AFF2090EBAE885
:100110000F0013F0010F18BFFB1A43F0010318473B
:100120007007000090070000103A24BF78C878C11B
:10013000FAD8520724BF30C830C144BF04680C60ED
:10014000704700000023002400250026103A28BF35
:1001500078C1FBD8520728BF30C148BF0B60704739
:100160001FB51FBD10B510BD00F031F81146FFF7E7
:10017000F7FF00F075FB00F04FF803B4FFF7F2FF54
:1001800003BC00F057F800000948804709480047C1
:10019000FEE7FEE7FEE7FEE7FEE7FEE7FEE7FEE737
:1001A000FEE7FEE704480549054A064B7047000094
:1001B00001080008ED0000089000002090060020D3
:1001C00090020020900200207047704770477546EB
:1001D00000F02CF8AE4605006946534620F00700B3
:1001E000854618B020B5FFF7DDFFBDE820404FF091
:1001F00000064FF000074FF000084FF0000B21F011
:100200000701AC46ACE8C009ACE8C009ACE8C009DD
:10021000ACE8C0098D46704710B50446AFF30080C6
:100220002046BDE81040FFF7A8BF00000048704717
:100230002C00002001491820ABBEFEE7260002007A
:100240007047000070B500F089FA13480068134A3F
:10025000B0FBF2F1481EB0F1807F00D31BE0481ED6
:100260004FF0E022506150170F22002804DB1307E3
:100270001C0E0B4B1C5406E013071D0E094B00F01F
:100280000F04241F1D5500BF00204FF0E022906195
:100290000720106100BF70BD0400002040420F0025
:1002A00000E400E018ED00E000B5024603E04FF482
:1002B0007A7000F005F8101EA2F10102F7D100BD1E
:1002C0000349086000BF024909680029FBD1704753
:1002D000000000202DE9F041024600250026002004
:1002E00000230024002791F803C00CF00F0591F8BB
:1002F00003C00CF0100CBCF1000F03D091F802C049
:100300004CEA050591F800C0BCF1000F31D014682B
:1003100000202BE04FF0010C0CFA00F3B1F800C004
:100320000CEA03069E4220D183004FF00F0C0CFA1A
:1003300003F7BC4305FA03FC4CEA040491F803C03C
:10034000BCF1280F06D14FF0010C0CFA00FCC2F8EA
:1003500014C00AE091F803C0BCF1480F05D14FF07A
:10036000010C0CFA00FCC2F810C0401C0828D1D3C4
:100370001460B1F800C0BCF1FF0F34DD54680020F8
:100380002EE000F1080C4FF0010808FA0CF3B1F868
:1003900000C00CEA03069E4221D183004FF00F0CEF
:1003A0000CFA03F7BC4305FA03FC4CEA040491F889
:1003B00003C0BCF1280F05D100F1080C08FA0CF8B5
:1003C000C2F8148091F803C0BCF1480F07D100F1C6
:1003D000080C4FF0010808FA0CF8C2F81080401C15
:1003E0000828CED35460BDE8F081416170470161B7
:1003F0007047000029B1064AD2690243044BDA6112
:1004000004E0034AD2698243014BDA61704700007D
:100410000010024029B1064A92690243044B9A61D6
:1004200004E0034A92698243014B9A6170470000DD
:100430000010024021B1028842F04002028004E034
:1004400002884FF6BF731A400280704702460020B0
:1004500013890B400BB1012000E00020704781811F
:10046000704710B50022028802F441520B884C8874
:1004700023438C882343CC8823430C8923434C8912
:1004800023438C892343CC8923431A430280838BE3
:100490004FF2FF74234083830B8A038210BD10B593
:1004A00000F002F810BD00000CB500200190009093
:1004B0003348006840F480303149086000BF30485C
:1004C000006800F4003000900198401C01900098F2
:1004D00018B90198B0F5A06FF1D12948006800F46F
:1004E000003010B10120009001E000200090009841
:1004F000012843D12348006840F0100021490860DA
:100500000846006820F0030008600846006840F0D4
:10051000020008601A484068194948600846406867
:1005200048600846406840F480604860084640687B
:1005300020F47C1048600846406840F4E8104860A9
:100540000846006840F08070086000BF0C480068F2
:1005500000F000700028F9D00948406820F003003E
:10056000074948600846406840F00200486000BF04
:100570000348406800F00C000828F9D10CBD0000C9
:1005800000100240002002404FF4404101804FF42F
:100590008271418000218180C18001814FF400710E
:1005A00041810021C18181810721018270470000C2
:1005B00038B505460C4615B1012D7DD156E0012117
:1005C0000803FFF727FF5A495A48FFF74AFF01215E
:1005D0000420FFF71FFFE020ADF8000018208DF881
:1005E000030003208DF8020069465348FFF772FEAE
:1005F0001020ADF800008DF8030003208DF80200F4
:1006000069464D48FFF766FE01214A48FFF712FF91
:1006100010214948FFF7EBFE4FF4FA50FFF744FE74
:1006200010214548FFF7E1FE0CB9012038BD19E063
:1006300000BF02213F48FFF709FF0028F9D02178C9
:100640003C48FFF70CFF00BF80213A48FFF7FEFE51
:100650000128F9D0207800B905E0641C4FF47A70C5
:10066000FFF722FEE4E700BF0020DFE70121880357
:10067000FFF7C0FE2E493148FFF7F3FE01210820A5
:10068000FFF7C8FE4FF46040ADF8000018208DF869
:10069000030003208DF8020069462948FFF71AFE7F
:1006A0004FF48050ADF8000010208DF803000320B7
:1006B0008DF80200694600E036E02148FFF70AFEA7
:1006C00001211E48FFF7B6FE4FF480511C48FFF78A
:1006D0008EFE4FF4FA50FFF7E7FD4FF480511848B3
:1006E000FFF783FE0CB90120A0E719E000BF02214B
:1006F0001248FFF7ABFE0028F9D021780F48FFF72A
:10070000AEFE00BF80210D48FFF7A0FE0128F9D002
:10071000207800B905E0641C4FF47A70FFF7C4FD3F
:10072000E4E700BF002081E700BF00BF7EE70000D4
:10073000180000200030014000080140003800404F
:10074000000C01400448006820B103480068401EC6
:1007500001490860704700000000002010B500212A
:1007600000200022214B5B6803F00C0121B1042919
:1007700006D0082928D107E01D4B1E4C236027E036
:100780001B4B1C4C236023E0184B5B6803F4701078
:10079000164B5B6803F48032022303EB904022B9CE
:1007A000154B4343134C23600DE0104B5B6803F47F
:1007B000003323B1104B43430E4C236003E00C4B3A
:1007C00043430C4C236003E0094B0A4C236000BFF9
:1007D00000BF064B5B68C3F30313084CE15C054B99
:1007E0001B68CB40034C236010BD0000001002408A
:1007F00000127A000400002000093D0008000020DB
:1008000010B51348006840F001001149086008461F
:100810004068104908400E494860084600680E4983
:1008200008400B4908600846006820F480200860F2
:100830000846406820F4FE0048604FF41F008860BE
:10084000FFF72DFE4FF000600449086010BD000066
:10085000001002400000FFF8FFFFF6FE08ED00E088
:1008600005A4FFF7EFFC0948FFF78EFE03E02146E1
:100870000120FFF79DFEFAE75175616368204D691D
:100880006E68205468696E6800000000180000203F
:10089000B00800080000002018000000280100082F
:1008A000C80800081800002078060000440100086D
:1008B0000000000000A24A04000000000000000048
:0808C000010203040607080908
:04000005080000ED02
:00000001FF
