:020000040800F2
:10000000680600208901000891010008930100089A
:100010009501000897010008990100080000000000
:100020000000000000000000000000009B0100082C
:100030009D010008000000009F010008C50600089F
:10004000A3010008A3010008A3010008A301000800
:10005000A3010008A3010008A3010008A3010008F0
:10006000A3010008A3010008A3010008A3010008E0
:10007000A3010008A3010008A3010008A3010008D0
:10008000A3010008A3010008A3010008A3010008C0
:10009000A3010008A3010008A3010008A3010008B0
:1000A000A3010008A3010008A3010008A3010008A0
:1000B000A3010008A3010008A3010008A301000890
:1000C000A3010008A3010008A3010008E903000838
:1000D000A3010008A3010008A3010008A301000870
:1000E000A3010008A3010008A301000800F002F822
:1000F00000F03AF80AA090E8000C82448344AAF188
:100100000107DA4501D100F02FF8AFF2090EBAE885
:100110000F0013F0010F18BFFB1A43F0010318473B
:100120002406000044060000103A24BF78C878C1B5
:10013000FAD8520724BF30C830C144BF04680C60ED
:10014000704700000023002400250026103A28BF35
:1001500078C1FBD8520728BF30C148BF0B60704739
:100160001FB51FBD10B510BD00F031F81146FFF7E7
:10017000F7FF00F0E3FA00F04FF803B4FFF7F2FFE7
:1001800003BC00F057F800000948804709480047C1
:10019000FEE7FEE7FEE7FEE7FEE7FEE7FEE7FEE737
:1001A000FEE7FEE704480549054A064B7047000094
:1001B000DD060008ED000008680000206806002049
:1001C000680200206802002070477047704775463B
:1001D00000F02CF8AE4605006946534620F00700B3
:1001E000854618B020B5FFF7DDFFBDE820404FF091
:1001F00000064FF000074FF000084FF0000B21F011
:100200000701AC46ACE8C009ACE8C009ACE8C009DD
:10021000ACE8C0098D46704710B50446AFF30080C6
:100220002046BDE81040FFF7A8BF00000048704717
:100230000800002001491820ABBEFEE7260002009E
:1002400070472DE9F04102460025002600200023DA
:100250000024002791F803C00CF00F0591F803C0AB
:100260000CF0100CBCF1000F03D091F802C04CEA66
:10027000050591F800C0BCF1000F31D014680020D2
:100280002BE04FF0010C0CFA00F3B1F800C00CEABF
:1002900003069E4220D183004FF00F0C0CFA03F7A7
:1002A000BC4305FA03FC4CEA040491F803C0BCF11A
:1002B000280F06D14FF0010C0CFA00FCC2F814C054
:1002C0000AE091F803C0BCF1480F05D14FF0010CD2
:1002D0000CFA00FCC2F810C0401C0828D1D31460EE
:1002E000B1F800C0BCF1FF0F34DD546800202EE0EF
:1002F00000F1080C4FF0010808FA0CF3B1F800C047
:100300000CEA03069E4221D183004FF00F0C0CFA39
:1003100003F7BC4305FA03FC4CEA040491F803C05C
:10032000BCF1280F05D100F1080C08FA0CF8C2F84E
:10033000148091F803C0BCF1480F07D100F1080CFC
:100340004FF0010808FA0CF8C2F81080401C082889
:10035000CED35460BDE8F08170B5002100230F2298
:10036000C47804B3154C246804F4E064C4F5E06474
:10037000210AC1F10403CA40447804FA03F18478E5
:100380001440214309010E4C0678A155047804F06D
:100390001F050124AC4005786D11AD0005F1E02585
:1003A000C5F8004109E0047804F01F050124AC40C1
:1003B000044D0678761145F8264070BD0CED00E03E
:1003C00000E400E080E100E029B1064A92690243BE
:1003D000044B9A6104E0034A92698243014B9A619B
:1003E000704700000010024010B57121134800F062
:1003F000AAF8012820D1124801780078401C104B3F
:1004000018700E4800F0C9F80D4800787A2802D11B
:1004100061200B49087000BF8021084800F08AF86D
:100420000128F9D0002000E0401C06498842FBDB8F
:100430007121024800F074F810BD00000030014046
:10044000000000208096980000B587B001210803C5
:10045000FFF7BAFF4FF44040ADF808004FF4827048
:10046000ADF80A000020ADF80C00ADF80E00ADF8B4
:1004700010004FF40070ADF812000020ADF8160027
:10048000ADF814000720ADF8180002A91C4800F0D0
:1004900086F801210420FFF797FFE020ADF8040063
:1004A00018208DF8070003208DF8060001A91548D3
:1004B000FFF7C7FE1020ADF804008DF807000320F9
:1004C0008DF8060001A90F48FFF7BBFE23208DF829
:1004D000000001208DF8010002208DF802000120AB
:1004E0008DF803006846FFF737FF012271210448A9
:1004F00000F043F80121024800F006F807B000BD03
:10050000003001400008014021B1028842F0400261
:10051000028004E002884FF6BF731A4002807047E1
:1005200010B5002201F00F040123A3409AB2D34377
:10053000038110BD0246002013890B400BB101203E
:1005400000E000207047F0B50246002000240023A0
:10055000002501F00F070126BE40B4B20B110126A1
:100560009E40B3B2968806EA03051689264016B166
:100570000DB1012000E00020F0BD30B500240023C3
:100580000C110125A540ABB21AB185881D438580A9
:1005900002E085889D43858030BD8181704710B51C
:1005A0000022028802F441520B884C8823438C8835
:1005B0002343CC8823430C8923434C8923438C89D0
:1005C0002343CC8923431A430280838B4FF2FF7469
:1005D000234083830B8A038210BD10B500F002F81C
:1005E00010BD00000CB50020019000903348006859
:1005F00040F480303149086000BF3048006800F4A2
:10060000003000900198401C0190009818B90198A2
:10061000B0F5A06FF1D12948006800F4003010B1A6
:100620000120009001E0002000900098012843D1B3
:100630002348006840F0100021490860084600681F
:1006400020F0030008600846006840F002000860DF
:100650001A4840681949486008464068486008469A
:10066000406840F4806048600846406820F47C1090
:1006700048600846406840F4E81048600846006852
:1006800040F08070086000BF0C48006800F0007007
:100690000028F9D00948406820F003000749486065
:1006A0000846406840F00200486000BF03484068C8
:1006B00000F00C000828F9D10CBD00000010024029
:1006C000002002400448006820B103480068401E32
:1006D00001490860704700000400002010B513486D
:1006E000006840F001001149086008464068104960
:1006F00008400E494860084600680E4908400B490A
:1007000008600846006820F48020086008464068B9
:1007100020F4FE0048604FF41F008860FFF75DFF83
:100720004FF000600449086010BD00000010024056
:100730000000FFF8FFFFF6FE08ED00E0FFF784FE83
:1007400000BFFEE76407000800000020080000006A
:10075000280100086C07000808000020600600005F
:0C076000440100086100000000000000DF
:04000005080000ED02
:00000001FF
