:060000000A128A11E82F2C
:100BD00008347A347A348316031306148614061103
:100BE000861508000A128A1104260A128A11831631
:100BF0000313111408000A128A1104260A128A111A
:100C00008316031311150800831603131419092EF4
:100C10000A2E042E11081F39031D0F2E102E042E2C
:100C200008002830831203139400831603139101E4
:100C3000940127309300871507160800F0000A1268
:100C40008A1104260A128A11700883120313930072
:100C50008C1D2B2E2C2E282E8C110800F3007A08C8
:100C6000FF007F08F304730804380A128A117C26F7
:100C70000A128A117308FB390A128A117C260A1299
:100C80008A114230F200F20B432E00000800F500FA
:100C9000FA017508F0390A128A112E260A128A11F1
:100CA0007508F40003300310F40DFF3E031D532EAE
:100CB0000310740DF0390A128A112E260A128A11B5
:100CC0000800F500FA01FA0A7508F0390A128A11CB
:100CD0002E260A128A117508F40003300310F40D51
:100CE000FF3E031D6E2E0310740DF0390A128A1197
:100CF0002E260A128A110800F1000A128A11F22522
:100D00000A128A118312031320080A128A111E265E
:100D10000A128A1171088312031321040A128A111C
:100D20001E260A128A110A128A11FB250A128A113A
:100D300008000A128A1111260A128A114E300A126C
:100D40008A114C270A128A110A128A11EB250A12FB
:100D50008A110A128A1103270A128A11F601F60A69
:100D600001300A128A11CD260A128A117B080A1252
:100D70008A1161260A128A1161307C06031DC12E78
:100D8000C22EC52E7A30FC00C72E0130FC027C0832
:100D9000FD00A92E0A128A110028F900EF2E76080C
:100DA000BF3E0A128A1147260A128A11022F7608BC
:100DB000933E0A128A1147260A128A11022F7608D8
:100DC000D33E0A128A1147260A128A11022F760888
:100DD0007F3E0A128A1147260A128A11022F7908C9
:100DE000F700F8017808003A0319F72EE72E770884
:100DF000023A0319CF2E013A0319D72E073A0319E5
:100E0000DF2EE72E0800831203138619082F092FFF
:100E1000032F061C0C2F0D2F092FF201F301831253
:100E20000313061C142F152F342F7D088039F10071
:100E300080307106031D1D2F1E2F202F0615212F18
:100E400006117D08F0007007FD007B08F0007007B8
:100E5000FB002F2F0030861801307B04FB000618A2
:100E6000322F332F2A2F3E2F0130F2070318F30AB7
:100E70000030F307061C3D2F3E2F3A2F7308803AAF
:100E8000FF0080307F02031D472F08307202031CD1
:100E90004A2F4B2F0F2F0800F900790883120313F4
:100EA000A00000300A128A117C260A128A119C3096
:100EB000F700D730F600F60B5B2FF70B5B2F0330F4
:100EC0000A128A1147260A128A111A30F700F830DE
:100ED000F600F60B692FF70B692F000003300A129A
:100EE0008A1147260A128A111A30F700F830F600E4
:100EF000F60B782FF70B782F000003300A128A11B7
:100F000047260A128A111A30F700F830F600F60B5D
:100F1000872FF70B872F000002300A128A1147260D
:100F20000A128A111A30F700F830F600F60B962FE5
:100F3000F70B962F000028300A128A1147260A1252
:100F40008A110230F8000430F700BA30F600F60BD0
:100F5000A72FF70BA72FF80BA72F00000C300A12B2
:100F60008A1147260A128A110230F8000430F7006D
:100F7000BA30F600F60BBA2FF70BBA2FF80BBA2FD0
:100F8000000001300A128A1147260A128A11023023
:100F9000F8000430F700BA30F600F60BCD2FF70B4F
:100FA000CD2FF80BCD2F000006300A128A114726EC
:100FB0000A128A110230F8000430F700BA30F60045
:100FC000F60BE02FF70BE02FF80BE02F00000800E6
:100FD0000A128A11E8250A128A11A1000A128A113E
:100FE000E9250A128A11FC000A128A11EA250A125E
:100FF0008A11FD00FA01FB0183010A128A11992E60
:08400000FF3FFF3FFF3FFF3FC0
:02400E003A3F37
:00000001FF
