:020000040800F2
:100000007006002089010008910100089301000892
:100010009501000897010008990100080000000000
:100020000000000000000000000000009B0100082C
:100030009D010008000000009F010008A1010008C8
:10004000A3010008A3010008A3010008A301000800
:10005000A3010008A3010008A3010008A3010008F0
:10006000A3010008A3010008A3010008A3010008E0
:10007000A3010008A3010008A3010008A3010008D0
:10008000A3010008A3010008A3010008A3010008C0
:10009000A3010008A3010008A3010008A3010008B0
:1000A000A3010008A3010008A3010008A3010008A0
:1000B00029090008A3010008A3010008A301000802
:1000C000A3010008A3010008A3010008A301000880
:1000D000A3010008A3010008A3010008A301000870
:1000E000A3010008A3010008A301000800F002F822
:1000F00000F03AF80AA090E8000C82448344AAF188
:100100000107DA4501D100F02FF8AFF2090EBAE885
:100110000F0013F0010F18BFFB1A43F0010318473B
:10012000C0090000E0090000103A24BF78C878C177
:10013000FAD8520724BF30C830C144BF04680C60ED
:10014000704700000023002400250026103A28BF35
:1001500078C1FBD8520728BF30C148BF0B60704739
:100160001FB51FBD10B510BD00F031F81146FFF7E7
:10017000F7FF00F089FC00F04FF803B4FFF7F2FF3F
:1001800003BC00F057F800000948804709480047C1
:10019000FEE7FEE7FEE7FEE7FEE7FEE7FEE7FEE737
:1001A000FEE7FEE704480549054A064B7047000094
:1001B0006D080008ED0000087000002070060020A7
:1001C000700200207002002070477047704775462B
:1001D00000F02CF8AE4605006946534620F00700B3
:1001E000854618B020B5FFF7DDFFBDE820404FF091
:1001F00000064FF000074FF000084FF0000B21F011
:100200000701AC46ACE8C009ACE8C009ACE8C009DD
:10021000ACE8C0098D46704710B50446AFF30080C6
:100220002046BDE81040FFF7A8BF00000048704717
:100230000C00002001491820ABBEFEE7260002009A
:100240007047000070B50646232E15D2DFE806F091
:100250001215181B1E2124272A2D303336393C4015
:1002600044474A4D505356595C5F6265686B6E72E5
:1002700076797D00414D01246BE0404D022468E019
:100280003E4D042465E03D4D082462E03B4D1024C2
:100290005FE03A4D20245CE0384D402459E0374D72
:1002A000802456E0354DAC1553E0344D6C1550E0CC
:1002B000324D2C154DE0314DEC144AE02F4DAC146D
:1002C00047E02E4D6C1444E02C4D4FF4804440E048
:1002D0002A4D4FF400443CE0294D012439E0284DDB
:1002E000022436E0264D042433E0254D082430E076
:1002F000234D10242DE0224D20242AE0204D4024BF
:1003000027E01F4D802424E01D4DAC1521E01C4D3D
:100310006C151EE01A4D2C151BE0194DEC1418E05D
:10032000174DAC1415E0164D6C1412E0144D4FF43B
:1003300080440EE0124D4FF400440AE0114D6C145D
:1003400007E0104D4FF4804403E00E4D4FF400449D
:1003500000BF00BF04200C49C8700846048002207A
:100360008870284600F0BAF82146284600F041F986
:10037000012800D170BD0020FCE70000000801400A
:10038000000C014000100140060000202DE9F04162
:1003900006460F46232E15D2DFE806F01215181B6D
:1003A0001E2124272A2D303336393C4044474A4DFC
:1003B000505356595C5F6265686B6E7276797D004A
:1003C000424D01246BE0414D022468E03F4D04247E
:1003D00065E03E4D082462E03C4D10245FE03B4D5B
:1003E00020245CE0394D402459E0384D802456E00B
:1003F000364DAC1553E0354D6C1550E0334D2C1592
:100400004DE0324DEC144AE0304DAC1447E02F4D36
:100410006C1444E02D4D4FF4804440E02B4D4FF4DC
:1004200000443CE02A4D012439E0294D022436E005
:10043000274D042433E0264D082430E0244D1024B9
:100440002DE0234D20242AE0214D402427E0204D9B
:10045000802424E01E4DAC1521E01D4D6C151EE0DE
:100460001B4D2C151BE01A4DEC1418E0184DAC1464
:1004700015E0174D6C1412E0154D4FF480440EE05A
:10048000134D4FF400440AE0124D6C1407E0114D77
:100490004FF4804403E00F4D4FF4004400BF00BF11
:1004A00010200D49C8700846048002208870284634
:1004B00000F014F827B92146284600F0A3F803E01D
:1004C0002146284600F0A0F8BDE8F0810008014070
:1004D000000C014000100140060000202DE9F04111
:1004E000024600250026002000230024002791F862
:1004F00003C00CF00F0591F803C00CF0100CBCF118
:10050000000F03D091F802C04CEA050591F800C035
:10051000BCF1000F31D0146800202BE04FF0010C2B
:100520000CFA00F3B1F800C00CEA03069E4220D199
:1005300083004FF00F0C0CFA03F7BC4305FA03FCE1
:100540004CEA040491F803C0BCF1280F06D14FF027
:10055000010C0CFA00FCC2F814C00AE091F803C0C8
:10056000BCF1480F05D14FF0010C0CFA00FCC2F8A9
:1005700010C0401C0828D1D31460B1F800C0BCF1F1
:10058000FF0F34DD546800202EE000F1080C4FF01E
:10059000010808FA0CF3B1F800C00CEA03069E4209
:1005A00021D183004FF00F0C0CFA03F7BC4305FA7E
:1005B00003FC4CEA040491F803C0BCF1280F05D1F8
:1005C00000F1080C08FA0CF8C2F8148091F803C086
:1005D000BCF1480F07D100F1080C4FF0010808FAF0
:1005E0000CF8C2F81080401C0828CED35460BDE837
:1005F000F0810246002093680B400BB1012000E01F
:1006000000207047416170470161704770B500215B
:1006100000230F22C47804B3154C246804F4E0646A
:10062000C4F5E064210AC1F10403CA40447804FA25
:1006300003F184781440214309010E4C0678A1553A
:10064000047804F01F050124AC4005786D11AD005D
:1006500005F1E025C5F8004109E0047804F01F0524
:100660000124AC40044D0678761145F8264070BD53
:100670000CED00E000E400E080E100E029B1064A72
:10068000D2690243044BDA6104E0034AD26982432F
:10069000014BDA61704700000010024029B1064AA0
:1006A00092690243044B9A6104E0034A92698243CF
:1006B000014B9A61704700000010024010B500F035
:1006C00001F810BD0CB5002001900090334800687F
:1006D00040F480303149086000BF3048006800F4C1
:1006E000003000900198401C0190009818B90198C2
:1006F000B0F5A06FF1D12948006800F4003010B1C6
:100700000120009001E0002000900098012843D1D2
:100710002348006840F0100021490860084600683E
:1007200020F0030008600846006840F002000860FE
:100730001A484068194948600846406848600846B9
:10074000406840F4806048600846406820F47C10AF
:1007500048600846406840F4E81048600846006871
:1007600040F08070086000BF0C48006800F0007026
:100770000028F9D00948406820F003000749486084
:100780000846406840F00200486000BF03484068E7
:1007900000F00C000828F9D10CBD00000010024048
:1007A0000020024010B500210846FFF7EFFD0021B0
:1007B0000120FFF7EBFD01210320FFF7E7FD10BD4E
:1007C00070B5002500210320FFF7E0FD002023493C
:1007D000087000BF224800780028FBD0002432E0D7
:1007E0001F480078012828D11E48007800F08005B5
:1007F000802D04D101210846FFF7C8FD03E0002148
:100800000120FFF7C3FD174800784006000E154988
:100810000870154800784006000E1349087007E07C
:100820000220FFF70FFD1049097808430E490870B0
:100830000B480078012806D1F2E7641C00BF084885
:1008400000780028FBD0082CCADB01210320FFF729
:100850009DFD01200149087070BD000001000020CD
:1008600000000020020000200400002010B5134802
:10087000006840F0010011490860084640681049CE
:1008800008400E494860084600680E4908400B4978
:1008900008600846006820F4802008600846406828
:1008A00020F4FE0048604FF41F008860FFF706FF49
:1008B0004FF000600449086010BD000000100240C5
:1008C0000000FFF8FFFFF6FE08ED00E01FB5012174
:1008D0000846FFF7D3FE4FF46160ADF80400142022
:1008E000ADF808000020ADF80A00ADF8060001A937
:1008F0004FF0804000F06AF801221146900700F0A6
:100900005BF80121880700F03AF81C208DF8000000
:1009100000208DF801008DF8020001208DF8030001
:100920006846FFF773FE1FBD10B50121880700F070
:1009300032F8D8B10E480078012803D100200D49C3
:1009400008700AE00B480078012803D1002009490B
:10095000087002E00120074908700648017800206D
:10096000FFF714FD0121880700F006F810BD000014
:100970000100002000000020CA430282704721B11C
:10098000028842F00102028004E002884FF6FE7302
:100990001A400280704730B5024600200023002430
:1009A000158A05EA0103958905EA010413B10CB122
:1009B000012000E0002030BD1AB183890B43838100
:1009C00002E083898B438381704700000022028804
:1009D0001D4B98420ED01D4B98420BD0B0F1804F6A
:1009E00008D01B4B984205D01A4B984202D01A4BA4
:1009F000984204D14FF68F731A404B881A43174B15
:100A0000984207D0164B984204D04FF6FF431A4045
:100A1000CB881A4302808B8883850B8803850A4B19
:100A200098420BD0094B984208D00E4B984205D003
:100A30000D4B984202D00D4B984201D10B7A0386A0
:100A40000123838270470000002C014000340140E4
:100A50000004004000080040000C0040001000406E
:100A600000140040004001400044014000480140A3
:100A700010B501210420FFF711FE10BD002100E098
:100A8000491C8142FCD37047FFF7F2FFFFF78AFE53
:100A9000FFF71CFF19E0FFF793FE0C48FFF7EEFF8E
:100AA0000B4800785A2803D141200949087004E016
:100AB00007480078401C0649087005480078054939
:100AC00008700548007805490870E4E780969800AA
:100AD0000300002002000020040000200500002088
:100AE000000B0008000000200C0000002801000896
:100AF0000C0B00080C0000206406000044010008F4
:0C0B000000014141000000000000000066
:04000005080000ED02
:00000001FF
